{
	"PriceConverter.sol": {
		"PriceConverter": {
			"abi": [
				{
					"inputs": [
						{
							"internalType": "uint256",
							"name": "ethAmount",
							"type": "uint256"
						}
					],
					"name": "getConversionRate",
					"outputs": [
						{
							"internalType": "uint256",
							"name": "",
							"type": "uint256"
						}
					],
					"stateMutability": "view",
					"type": "function"
				},
				{
					"inputs": [],
					"name": "getPrice",
					"outputs": [
						{
							"internalType": "uint256",
							"name": "",
							"type": "uint256"
						}
					],
					"stateMutability": "view",
					"type": "function"
				}
			],
			"devdoc": {
				"kind": "dev",
				"methods": {},
				"version": 1
			},
			"evm": {
				"assembly": "    /* \"PriceConverter.sol\":257:1269  contract PriceConverter {//creating a library... */\n  mstore(0x40, 0x80)\n  callvalue\n  dup1\n  iszero\n  tag_1\n  jumpi\n  0x00\n  dup1\n  revert\ntag_1:\n  pop\n  dataSize(sub_0)\n  dup1\n  dataOffset(sub_0)\n  0x00\n  codecopy\n  0x00\n  return\nstop\n\nsub_0: assembly {\n        /* \"PriceConverter.sol\":257:1269  contract PriceConverter {//creating a library... */\n      mstore(0x40, 0x80)\n      callvalue\n      dup1\n      iszero\n      tag_1\n      jumpi\n      0x00\n      dup1\n      revert\n    tag_1:\n      pop\n      jumpi(tag_2, lt(calldatasize, 0x04))\n      shr(0xe0, calldataload(0x00))\n      dup1\n      0x6e5b6b28\n      eq\n      tag_3\n      jumpi\n      dup1\n      0x98d5fdca\n      eq\n      tag_4\n      jumpi\n    tag_2:\n      0x00\n      dup1\n      revert\n        /* \"PriceConverter.sol\":935:1266  function getConversionRate(uint256 ethAmount)... */\n    tag_3:\n      tag_5\n      0x04\n      dup1\n      calldatasize\n      sub\n      dup2\n      add\n      swap1\n      tag_6\n      swap2\n      swap1\n      tag_7\n      jump\t// in\n    tag_6:\n      tag_8\n      jump\t// in\n    tag_5:\n      mload(0x40)\n      tag_9\n      swap2\n      swap1\n      tag_10\n      jump\t// in\n    tag_9:\n      mload(0x40)\n      dup1\n      swap2\n      sub\n      swap1\n      return\n        /* \"PriceConverter.sol\":375:908  function getPrice() public view returns (uint256) {... */\n    tag_4:\n      tag_11\n      tag_12\n      jump\t// in\n    tag_11:\n      mload(0x40)\n      tag_13\n      swap2\n      swap1\n      tag_10\n      jump\t// in\n    tag_13:\n      mload(0x40)\n      dup1\n      swap2\n      sub\n      swap1\n      return\n        /* \"PriceConverter.sol\":935:1266  function getConversionRate(uint256 ethAmount)... */\n    tag_8:\n        /* \"PriceConverter.sol\":1029:1036  uint256 */\n      0x00\n        /* \"PriceConverter.sol\":1054:1070  uint256 ethPrice */\n      dup1\n        /* \"PriceConverter.sol\":1073:1083  getPrice() */\n      tag_15\n        /* \"PriceConverter.sol\":1073:1081  getPrice */\n      tag_12\n        /* \"PriceConverter.sol\":1073:1083  getPrice() */\n      jump\t// in\n    tag_15:\n        /* \"PriceConverter.sol\":1054:1083  uint256 ethPrice = getPrice() */\n      swap1\n      pop\n        /* \"PriceConverter.sol\":1094:1116  uint256 ethAmountInUsd */\n      0x00\n        /* \"PriceConverter.sol\":1144:1148  1e18 */\n      0x0de0b6b3a7640000\n        /* \"PriceConverter.sol\":1131:1140  ethAmount */\n      dup5\n        /* \"PriceConverter.sol\":1120:1128  ethPrice */\n      dup4\n        /* \"PriceConverter.sol\":1120:1140  ethPrice * ethAmount */\n      tag_16\n      swap2\n      swap1\n      tag_17\n      jump\t// in\n    tag_16:\n        /* \"PriceConverter.sol\":1119:1148  (ethPrice * ethAmount) / 1e18 */\n      tag_18\n      swap2\n      swap1\n      tag_19\n      jump\t// in\n    tag_18:\n        /* \"PriceConverter.sol\":1094:1148  uint256 ethAmountInUsd = (ethPrice * ethAmount) / 1e18 */\n      swap1\n      pop\n        /* \"PriceConverter.sol\":1244:1258  ethAmountInUsd */\n      dup1\n        /* \"PriceConverter.sol\":1237:1258  return ethAmountInUsd */\n      swap3\n      pop\n      pop\n      pop\n        /* \"PriceConverter.sol\":935:1266  function getConversionRate(uint256 ethAmount)... */\n      swap2\n      swap1\n      pop\n      jump\t// out\n        /* \"PriceConverter.sol\":375:908  function getPrice() public view returns (uint256) {... */\n    tag_12:\n        /* \"PriceConverter.sol\":416:423  uint256 */\n      0x00\n        /* \"PriceConverter.sol\":534:565  AggregatorV3Interface priceFeed */\n      dup1\n        /* \"PriceConverter.sol\":604:646  0x5f4eC3Df9cbd43714FE2740f5E3616155c5b8419 */\n      0x5f4ec3df9cbd43714fe2740f5e3616155c5b8419\n        /* \"PriceConverter.sol\":534:722  AggregatorV3Interface priceFeed = AggregatorV3Interface(... */\n      swap1\n      pop\n        /* \"PriceConverter.sol\":736:749  int256 answer */\n      0x00\n        /* \"PriceConverter.sol\":759:768  priceFeed */\n      dup2\n        /* \"PriceConverter.sol\":759:784  priceFeed.latestRoundData */\n      0xffffffffffffffffffffffffffffffffffffffff\n      and\n      0xfeaf968c\n        /* \"PriceConverter.sol\":759:786  priceFeed.latestRoundData() */\n      mload(0x40)\n      dup2\n      0xffffffff\n      and\n      0xe0\n      shl\n      dup2\n      mstore\n      0x04\n      add\n      0xa0\n      mload(0x40)\n      dup1\n      dup4\n      sub\n      dup2\n      dup7\n      dup1\n      extcodesize\n      iszero\n      dup1\n      iszero\n      tag_21\n      jumpi\n      0x00\n      dup1\n      revert\n    tag_21:\n      pop\n      gas\n      staticcall\n      iszero\n      dup1\n      iszero\n      tag_23\n      jumpi\n      returndatasize\n      0x00\n      dup1\n      returndatacopy\n      revert(0x00, returndatasize)\n    tag_23:\n      pop\n      pop\n      pop\n      pop\n      mload(0x40)\n      returndatasize\n      not(0x1f)\n      0x1f\n      dup3\n      add\n      and\n      dup3\n      add\n      dup1\n      0x40\n      mstore\n      pop\n      dup2\n      add\n      swap1\n      tag_24\n      swap2\n      swap1\n      tag_25\n      jump\t// in\n    tag_24:\n        /* \"PriceConverter.sol\":733:786  (, int256 answer, , , ) = priceFeed.latestRoundData() */\n      pop\n      pop\n      pop\n      swap2\n      pop\n      pop\n        /* \"PriceConverter.sol\":895:899  1e18 */\n      0x0de0b6b3a7640000\n        /* \"PriceConverter.sol\":886:892  answer */\n      dup2\n        /* \"PriceConverter.sol\":886:899  answer * 1e18 */\n      tag_26\n      swap2\n      swap1\n      tag_27\n      jump\t// in\n    tag_26:\n        /* \"PriceConverter.sol\":871:900  return uint256(answer * 1e18) */\n      swap3\n      pop\n      pop\n      pop\n        /* \"PriceConverter.sol\":375:908  function getPrice() public view returns (uint256) {... */\n      swap1\n      jump\t// out\n        /* \"#utility.yul\":88:205   */\n    tag_29:\n        /* \"#utility.yul\":197:198   */\n      0x00\n        /* \"#utility.yul\":194:195   */\n      dup1\n        /* \"#utility.yul\":187:199   */\n      revert\n        /* \"#utility.yul\":334:411   */\n    tag_31:\n        /* \"#utility.yul\":371:378   */\n      0x00\n        /* \"#utility.yul\":400:405   */\n      dup2\n        /* \"#utility.yul\":389:405   */\n      swap1\n      pop\n        /* \"#utility.yul\":334:411   */\n      swap2\n      swap1\n      pop\n      jump\t// out\n        /* \"#utility.yul\":417:539   */\n    tag_32:\n        /* \"#utility.yul\":490:514   */\n      tag_50\n        /* \"#utility.yul\":508:513   */\n      dup2\n        /* \"#utility.yul\":490:514   */\n      tag_31\n      jump\t// in\n    tag_50:\n        /* \"#utility.yul\":483:488   */\n      dup2\n        /* \"#utility.yul\":480:515   */\n      eq\n        /* \"#utility.yul\":470:533   */\n      tag_51\n      jumpi\n        /* \"#utility.yul\":529:530   */\n      0x00\n        /* \"#utility.yul\":526:527   */\n      dup1\n        /* \"#utility.yul\":519:531   */\n      revert\n        /* \"#utility.yul\":470:533   */\n    tag_51:\n        /* \"#utility.yul\":417:539   */\n      pop\n      jump\t// out\n        /* \"#utility.yul\":545:684   */\n    tag_33:\n        /* \"#utility.yul\":591:596   */\n      0x00\n        /* \"#utility.yul\":629:635   */\n      dup2\n        /* \"#utility.yul\":616:636   */\n      calldataload\n        /* \"#utility.yul\":607:636   */\n      swap1\n      pop\n        /* \"#utility.yul\":645:678   */\n      tag_53\n        /* \"#utility.yul\":672:677   */\n      dup2\n        /* \"#utility.yul\":645:678   */\n      tag_32\n      jump\t// in\n    tag_53:\n        /* \"#utility.yul\":545:684   */\n      swap3\n      swap2\n      pop\n      pop\n      jump\t// out\n        /* \"#utility.yul\":690:1019   */\n    tag_7:\n        /* \"#utility.yul\":749:755   */\n      0x00\n        /* \"#utility.yul\":798:800   */\n      0x20\n        /* \"#utility.yul\":786:795   */\n      dup3\n        /* \"#utility.yul\":777:784   */\n      dup5\n        /* \"#utility.yul\":773:796   */\n      sub\n        /* \"#utility.yul\":769:801   */\n      slt\n        /* \"#utility.yul\":766:885   */\n      iszero\n      tag_55\n      jumpi\n        /* \"#utility.yul\":804:883   */\n      tag_56\n      tag_29\n      jump\t// in\n    tag_56:\n        /* \"#utility.yul\":766:885   */\n    tag_55:\n        /* \"#utility.yul\":924:925   */\n      0x00\n        /* \"#utility.yul\":949:1002   */\n      tag_57\n        /* \"#utility.yul\":994:1001   */\n      dup5\n        /* \"#utility.yul\":985:991   */\n      dup3\n        /* \"#utility.yul\":974:983   */\n      dup6\n        /* \"#utility.yul\":970:992   */\n      add\n        /* \"#utility.yul\":949:1002   */\n      tag_33\n      jump\t// in\n    tag_57:\n        /* \"#utility.yul\":939:1002   */\n      swap2\n      pop\n        /* \"#utility.yul\":895:1012   */\n      pop\n        /* \"#utility.yul\":690:1019   */\n      swap3\n      swap2\n      pop\n      pop\n      jump\t// out\n        /* \"#utility.yul\":1025:1143   */\n    tag_34:\n        /* \"#utility.yul\":1112:1136   */\n      tag_59\n        /* \"#utility.yul\":1130:1135   */\n      dup2\n        /* \"#utility.yul\":1112:1136   */\n      tag_31\n      jump\t// in\n    tag_59:\n        /* \"#utility.yul\":1107:1110   */\n      dup3\n        /* \"#utility.yul\":1100:1137   */\n      mstore\n        /* \"#utility.yul\":1025:1143   */\n      pop\n      pop\n      jump\t// out\n        /* \"#utility.yul\":1149:1371   */\n    tag_10:\n        /* \"#utility.yul\":1242:1246   */\n      0x00\n        /* \"#utility.yul\":1280:1282   */\n      0x20\n        /* \"#utility.yul\":1269:1278   */\n      dup3\n        /* \"#utility.yul\":1265:1283   */\n      add\n        /* \"#utility.yul\":1257:1283   */\n      swap1\n      pop\n        /* \"#utility.yul\":1293:1364   */\n      tag_61\n        /* \"#utility.yul\":1361:1362   */\n      0x00\n        /* \"#utility.yul\":1350:1359   */\n      dup4\n        /* \"#utility.yul\":1346:1363   */\n      add\n        /* \"#utility.yul\":1337:1343   */\n      dup5\n        /* \"#utility.yul\":1293:1364   */\n      tag_34\n      jump\t// in\n    tag_61:\n        /* \"#utility.yul\":1149:1371   */\n      swap3\n      swap2\n      pop\n      pop\n      jump\t// out\n        /* \"#utility.yul\":1377:1557   */\n    tag_35:\n        /* \"#utility.yul\":1425:1502   */\n      0x4e487b7100000000000000000000000000000000000000000000000000000000\n        /* \"#utility.yul\":1422:1423   */\n      0x00\n        /* \"#utility.yul\":1415:1503   */\n      mstore\n        /* \"#utility.yul\":1522:1526   */\n      0x11\n        /* \"#utility.yul\":1519:1520   */\n      0x04\n        /* \"#utility.yul\":1512:1527   */\n      mstore\n        /* \"#utility.yul\":1546:1550   */\n      0x24\n        /* \"#utility.yul\":1543:1544   */\n      0x00\n        /* \"#utility.yul\":1536:1551   */\n      revert\n        /* \"#utility.yul\":1563:1911   */\n    tag_17:\n        /* \"#utility.yul\":1603:1610   */\n      0x00\n        /* \"#utility.yul\":1626:1646   */\n      tag_64\n        /* \"#utility.yul\":1644:1645   */\n      dup3\n        /* \"#utility.yul\":1626:1646   */\n      tag_31\n      jump\t// in\n    tag_64:\n        /* \"#utility.yul\":1621:1646   */\n      swap2\n      pop\n        /* \"#utility.yul\":1660:1680   */\n      tag_65\n        /* \"#utility.yul\":1678:1679   */\n      dup4\n        /* \"#utility.yul\":1660:1680   */\n      tag_31\n      jump\t// in\n    tag_65:\n        /* \"#utility.yul\":1655:1680   */\n      swap3\n      pop\n        /* \"#utility.yul\":1848:1849   */\n      dup2\n        /* \"#utility.yul\":1780:1846   */\n      0xffffffffffffffffffffffffffffffffffffffffffffffffffffffffffffffff\n        /* \"#utility.yul\":1776:1850   */\n      div\n        /* \"#utility.yul\":1773:1774   */\n      dup4\n        /* \"#utility.yul\":1770:1851   */\n      gt\n        /* \"#utility.yul\":1765:1766   */\n      dup3\n        /* \"#utility.yul\":1758:1767   */\n      iszero\n        /* \"#utility.yul\":1751:1768   */\n      iszero\n        /* \"#utility.yul\":1747:1852   */\n      and\n        /* \"#utility.yul\":1744:1875   */\n      iszero\n      tag_66\n      jumpi\n        /* \"#utility.yul\":1855:1873   */\n      tag_67\n      tag_35\n      jump\t// in\n    tag_67:\n        /* \"#utility.yul\":1744:1875   */\n    tag_66:\n        /* \"#utility.yul\":1903:1904   */\n      dup3\n        /* \"#utility.yul\":1900:1901   */\n      dup3\n        /* \"#utility.yul\":1896:1905   */\n      mul\n        /* \"#utility.yul\":1885:1905   */\n      swap1\n      pop\n        /* \"#utility.yul\":1563:1911   */\n      swap3\n      swap2\n      pop\n      pop\n      jump\t// out\n        /* \"#utility.yul\":1917:2097   */\n    tag_36:\n        /* \"#utility.yul\":1965:2042   */\n      0x4e487b7100000000000000000000000000000000000000000000000000000000\n        /* \"#utility.yul\":1962:1963   */\n      0x00\n        /* \"#utility.yul\":1955:2043   */\n      mstore\n        /* \"#utility.yul\":2062:2066   */\n      0x12\n        /* \"#utility.yul\":2059:2060   */\n      0x04\n        /* \"#utility.yul\":2052:2067   */\n      mstore\n        /* \"#utility.yul\":2086:2090   */\n      0x24\n        /* \"#utility.yul\":2083:2084   */\n      0x00\n        /* \"#utility.yul\":2076:2091   */\n      revert\n        /* \"#utility.yul\":2103:2288   */\n    tag_19:\n        /* \"#utility.yul\":2143:2144   */\n      0x00\n        /* \"#utility.yul\":2160:2180   */\n      tag_70\n        /* \"#utility.yul\":2178:2179   */\n      dup3\n        /* \"#utility.yul\":2160:2180   */\n      tag_31\n      jump\t// in\n    tag_70:\n        /* \"#utility.yul\":2155:2180   */\n      swap2\n      pop\n        /* \"#utility.yul\":2194:2214   */\n      tag_71\n        /* \"#utility.yul\":2212:2213   */\n      dup4\n        /* \"#utility.yul\":2194:2214   */\n      tag_31\n      jump\t// in\n    tag_71:\n        /* \"#utility.yul\":2189:2214   */\n      swap3\n      pop\n        /* \"#utility.yul\":2233:2234   */\n      dup3\n        /* \"#utility.yul\":2223:2258   */\n      tag_72\n      jumpi\n        /* \"#utility.yul\":2238:2256   */\n      tag_73\n      tag_36\n      jump\t// in\n    tag_73:\n        /* \"#utility.yul\":2223:2258   */\n    tag_72:\n        /* \"#utility.yul\":2280:2281   */\n      dup3\n        /* \"#utility.yul\":2277:2278   */\n      dup3\n        /* \"#utility.yul\":2273:2282   */\n      div\n        /* \"#utility.yul\":2268:2282   */\n      swap1\n      pop\n        /* \"#utility.yul\":2103:2288   */\n      swap3\n      swap2\n      pop\n      pop\n      jump\t// out\n        /* \"#utility.yul\":2294:2399   */\n    tag_37:\n        /* \"#utility.yul\":2330:2337   */\n      0x00\n        /* \"#utility.yul\":2370:2392   */\n      0xffffffffffffffffffff\n        /* \"#utility.yul\":2363:2368   */\n      dup3\n        /* \"#utility.yul\":2359:2393   */\n      and\n        /* \"#utility.yul\":2348:2393   */\n      swap1\n      pop\n        /* \"#utility.yul\":2294:2399   */\n      swap2\n      swap1\n      pop\n      jump\t// out\n        /* \"#utility.yul\":2405:2525   */\n    tag_38:\n        /* \"#utility.yul\":2477:2500   */\n      tag_76\n        /* \"#utility.yul\":2494:2499   */\n      dup2\n        /* \"#utility.yul\":2477:2500   */\n      tag_37\n      jump\t// in\n    tag_76:\n        /* \"#utility.yul\":2470:2475   */\n      dup2\n        /* \"#utility.yul\":2467:2501   */\n      eq\n        /* \"#utility.yul\":2457:2519   */\n      tag_77\n      jumpi\n        /* \"#utility.yul\":2515:2516   */\n      0x00\n        /* \"#utility.yul\":2512:2513   */\n      dup1\n        /* \"#utility.yul\":2505:2517   */\n      revert\n        /* \"#utility.yul\":2457:2519   */\n    tag_77:\n        /* \"#utility.yul\":2405:2525   */\n      pop\n      jump\t// out\n        /* \"#utility.yul\":2531:2672   */\n    tag_39:\n        /* \"#utility.yul\":2587:2592   */\n      0x00\n        /* \"#utility.yul\":2618:2624   */\n      dup2\n        /* \"#utility.yul\":2612:2625   */\n      mload\n        /* \"#utility.yul\":2603:2625   */\n      swap1\n      pop\n        /* \"#utility.yul\":2634:2666   */\n      tag_79\n        /* \"#utility.yul\":2660:2665   */\n      dup2\n        /* \"#utility.yul\":2634:2666   */\n      tag_38\n      jump\t// in\n    tag_79:\n        /* \"#utility.yul\":2531:2672   */\n      swap3\n      swap2\n      pop\n      pop\n      jump\t// out\n        /* \"#utility.yul\":2678:2754   */\n    tag_40:\n        /* \"#utility.yul\":2714:2721   */\n      0x00\n        /* \"#utility.yul\":2743:2748   */\n      dup2\n        /* \"#utility.yul\":2732:2748   */\n      swap1\n      pop\n        /* \"#utility.yul\":2678:2754   */\n      swap2\n      swap1\n      pop\n      jump\t// out\n        /* \"#utility.yul\":2760:2880   */\n    tag_41:\n        /* \"#utility.yul\":2832:2855   */\n      tag_82\n        /* \"#utility.yul\":2849:2854   */\n      dup2\n        /* \"#utility.yul\":2832:2855   */\n      tag_40\n      jump\t// in\n    tag_82:\n        /* \"#utility.yul\":2825:2830   */\n      dup2\n        /* \"#utility.yul\":2822:2856   */\n      eq\n        /* \"#utility.yul\":2812:2874   */\n      tag_83\n      jumpi\n        /* \"#utility.yul\":2870:2871   */\n      0x00\n        /* \"#utility.yul\":2867:2868   */\n      dup1\n        /* \"#utility.yul\":2860:2872   */\n      revert\n        /* \"#utility.yul\":2812:2874   */\n    tag_83:\n        /* \"#utility.yul\":2760:2880   */\n      pop\n      jump\t// out\n        /* \"#utility.yul\":2886:3027   */\n    tag_42:\n        /* \"#utility.yul\":2942:2947   */\n      0x00\n        /* \"#utility.yul\":2973:2979   */\n      dup2\n        /* \"#utility.yul\":2967:2980   */\n      mload\n        /* \"#utility.yul\":2958:2980   */\n      swap1\n      pop\n        /* \"#utility.yul\":2989:3021   */\n      tag_85\n        /* \"#utility.yul\":3015:3020   */\n      dup2\n        /* \"#utility.yul\":2989:3021   */\n      tag_41\n      jump\t// in\n    tag_85:\n        /* \"#utility.yul\":2886:3027   */\n      swap3\n      swap2\n      pop\n      pop\n      jump\t// out\n        /* \"#utility.yul\":3033:3176   */\n    tag_43:\n        /* \"#utility.yul\":3090:3095   */\n      0x00\n        /* \"#utility.yul\":3121:3127   */\n      dup2\n        /* \"#utility.yul\":3115:3128   */\n      mload\n        /* \"#utility.yul\":3106:3128   */\n      swap1\n      pop\n        /* \"#utility.yul\":3137:3170   */\n      tag_87\n        /* \"#utility.yul\":3164:3169   */\n      dup2\n        /* \"#utility.yul\":3137:3170   */\n      tag_32\n      jump\t// in\n    tag_87:\n        /* \"#utility.yul\":3033:3176   */\n      swap3\n      swap2\n      pop\n      pop\n      jump\t// out\n        /* \"#utility.yul\":3182:4153   */\n    tag_25:\n        /* \"#utility.yul\":3285:3291   */\n      0x00\n        /* \"#utility.yul\":3293:3299   */\n      dup1\n        /* \"#utility.yul\":3301:3307   */\n      0x00\n        /* \"#utility.yul\":3309:3315   */\n      dup1\n        /* \"#utility.yul\":3317:3323   */\n      0x00\n        /* \"#utility.yul\":3366:3369   */\n      0xa0\n        /* \"#utility.yul\":3354:3363   */\n      dup7\n        /* \"#utility.yul\":3345:3352   */\n      dup9\n        /* \"#utility.yul\":3341:3364   */\n      sub\n        /* \"#utility.yul\":3337:3370   */\n      slt\n        /* \"#utility.yul\":3334:3454   */\n      iszero\n      tag_89\n      jumpi\n        /* \"#utility.yul\":3373:3452   */\n      tag_90\n      tag_29\n      jump\t// in\n    tag_90:\n        /* \"#utility.yul\":3334:3454   */\n    tag_89:\n        /* \"#utility.yul\":3493:3494   */\n      0x00\n        /* \"#utility.yul\":3518:3581   */\n      tag_91\n        /* \"#utility.yul\":3573:3580   */\n      dup9\n        /* \"#utility.yul\":3564:3570   */\n      dup3\n        /* \"#utility.yul\":3553:3562   */\n      dup10\n        /* \"#utility.yul\":3549:3571   */\n      add\n        /* \"#utility.yul\":3518:3581   */\n      tag_39\n      jump\t// in\n    tag_91:\n        /* \"#utility.yul\":3508:3581   */\n      swap6\n      pop\n        /* \"#utility.yul\":3464:3591   */\n      pop\n        /* \"#utility.yul\":3630:3632   */\n      0x20\n        /* \"#utility.yul\":3656:3719   */\n      tag_92\n        /* \"#utility.yul\":3711:3718   */\n      dup9\n        /* \"#utility.yul\":3702:3708   */\n      dup3\n        /* \"#utility.yul\":3691:3700   */\n      dup10\n        /* \"#utility.yul\":3687:3709   */\n      add\n        /* \"#utility.yul\":3656:3719   */\n      tag_42\n      jump\t// in\n    tag_92:\n        /* \"#utility.yul\":3646:3719   */\n      swap5\n      pop\n        /* \"#utility.yul\":3601:3729   */\n      pop\n        /* \"#utility.yul\":3768:3770   */\n      0x40\n        /* \"#utility.yul\":3794:3858   */\n      tag_93\n        /* \"#utility.yul\":3850:3857   */\n      dup9\n        /* \"#utility.yul\":3841:3847   */\n      dup3\n        /* \"#utility.yul\":3830:3839   */\n      dup10\n        /* \"#utility.yul\":3826:3848   */\n      add\n        /* \"#utility.yul\":3794:3858   */\n      tag_43\n      jump\t// in\n    tag_93:\n        /* \"#utility.yul\":3784:3858   */\n      swap4\n      pop\n        /* \"#utility.yul\":3739:3868   */\n      pop\n        /* \"#utility.yul\":3907:3909   */\n      0x60\n        /* \"#utility.yul\":3933:3997   */\n      tag_94\n        /* \"#utility.yul\":3989:3996   */\n      dup9\n        /* \"#utility.yul\":3980:3986   */\n      dup3\n        /* \"#utility.yul\":3969:3978   */\n      dup10\n        /* \"#utility.yul\":3965:3987   */\n      add\n        /* \"#utility.yul\":3933:3997   */\n      tag_43\n      jump\t// in\n    tag_94:\n        /* \"#utility.yul\":3923:3997   */\n      swap3\n      pop\n        /* \"#utility.yul\":3878:4007   */\n      pop\n        /* \"#utility.yul\":4046:4049   */\n      0x80\n        /* \"#utility.yul\":4073:4136   */\n      tag_95\n        /* \"#utility.yul\":4128:4135   */\n      dup9\n        /* \"#utility.yul\":4119:4125   */\n      dup3\n        /* \"#utility.yul\":4108:4117   */\n      dup10\n        /* \"#utility.yul\":4104:4126   */\n      add\n        /* \"#utility.yul\":4073:4136   */\n      tag_39\n      jump\t// in\n    tag_95:\n        /* \"#utility.yul\":4063:4136   */\n      swap2\n      pop\n        /* \"#utility.yul\":4017:4146   */\n      pop\n        /* \"#utility.yul\":3182:4153   */\n      swap3\n      swap6\n      pop\n      swap3\n      swap6\n      swap1\n      swap4\n      pop\n      jump\t// out\n        /* \"#utility.yul\":4159:5150   */\n    tag_27:\n        /* \"#utility.yul\":4198:4205   */\n      0x00\n        /* \"#utility.yul\":4221:4240   */\n      tag_97\n        /* \"#utility.yul\":4238:4239   */\n      dup3\n        /* \"#utility.yul\":4221:4240   */\n      tag_40\n      jump\t// in\n    tag_97:\n        /* \"#utility.yul\":4216:4240   */\n      swap2\n      pop\n        /* \"#utility.yul\":4254:4273   */\n      tag_98\n        /* \"#utility.yul\":4271:4272   */\n      dup4\n        /* \"#utility.yul\":4254:4273   */\n      tag_40\n      jump\t// in\n    tag_98:\n        /* \"#utility.yul\":4249:4273   */\n      swap3\n      pop\n        /* \"#utility.yul\":4455:4456   */\n      dup3\n        /* \"#utility.yul\":4387:4453   */\n      0x7fffffffffffffffffffffffffffffffffffffffffffffffffffffffffffffff\n        /* \"#utility.yul\":4383:4457   */\n      div\n        /* \"#utility.yul\":4380:4381   */\n      dup3\n        /* \"#utility.yul\":4377:4458   */\n      gt\n        /* \"#utility.yul\":4372:4373   */\n      0x00\n        /* \"#utility.yul\":4369:4370   */\n      dup5\n        /* \"#utility.yul\":4365:4374   */\n      sgt\n        /* \"#utility.yul\":4361:4362   */\n      0x00\n        /* \"#utility.yul\":4358:4359   */\n      dup5\n        /* \"#utility.yul\":4354:4363   */\n      sgt\n        /* \"#utility.yul\":4350:4375   */\n      and\n        /* \"#utility.yul\":4346:4459   */\n      and\n        /* \"#utility.yul\":4343:4482   */\n      iszero\n      tag_99\n      jumpi\n        /* \"#utility.yul\":4462:4480   */\n      tag_100\n      tag_35\n      jump\t// in\n    tag_100:\n        /* \"#utility.yul\":4343:4482   */\n    tag_99:\n        /* \"#utility.yul\":4666:4667   */\n      dup2\n        /* \"#utility.yul\":4598:4664   */\n      0x8000000000000000000000000000000000000000000000000000000000000000\n        /* \"#utility.yul\":4593:4668   */\n      sdiv\n        /* \"#utility.yul\":4590:4591   */\n      dup4\n        /* \"#utility.yul\":4586:4669   */\n      slt\n        /* \"#utility.yul\":4581:4582   */\n      0x00\n        /* \"#utility.yul\":4578:4579   */\n      dup5\n        /* \"#utility.yul\":4574:4583   */\n      slt\n        /* \"#utility.yul\":4570:4571   */\n      0x00\n        /* \"#utility.yul\":4567:4568   */\n      dup5\n        /* \"#utility.yul\":4563:4572   */\n      sgt\n        /* \"#utility.yul\":4559:4584   */\n      and\n        /* \"#utility.yul\":4555:4670   */\n      and\n        /* \"#utility.yul\":4552:4693   */\n      iszero\n      tag_101\n      jumpi\n        /* \"#utility.yul\":4673:4691   */\n      tag_102\n      tag_35\n      jump\t// in\n    tag_102:\n        /* \"#utility.yul\":4552:4693   */\n    tag_101:\n        /* \"#utility.yul\":4877:4878   */\n      dup3\n        /* \"#utility.yul\":4809:4875   */\n      0x8000000000000000000000000000000000000000000000000000000000000000\n        /* \"#utility.yul\":4804:4879   */\n      sdiv\n        /* \"#utility.yul\":4801:4802   */\n      dup3\n        /* \"#utility.yul\":4797:4880   */\n      slt\n        /* \"#utility.yul\":4792:4793   */\n      0x00\n        /* \"#utility.yul\":4789:4790   */\n      dup5\n        /* \"#utility.yul\":4785:4794   */\n      sgt\n        /* \"#utility.yul\":4781:4782   */\n      0x00\n        /* \"#utility.yul\":4778:4779   */\n      dup5\n        /* \"#utility.yul\":4774:4783   */\n      slt\n        /* \"#utility.yul\":4770:4795   */\n      and\n        /* \"#utility.yul\":4766:4881   */\n      and\n        /* \"#utility.yul\":4763:4904   */\n      iszero\n      tag_103\n      jumpi\n        /* \"#utility.yul\":4884:4902   */\n      tag_104\n      tag_35\n      jump\t// in\n    tag_104:\n        /* \"#utility.yul\":4763:4904   */\n    tag_103:\n        /* \"#utility.yul\":5087:5088   */\n      dup3\n        /* \"#utility.yul\":5019:5085   */\n      0x7fffffffffffffffffffffffffffffffffffffffffffffffffffffffffffffff\n        /* \"#utility.yul\":5014:5089   */\n      sdiv\n        /* \"#utility.yul\":5011:5012   */\n      dup3\n        /* \"#utility.yul\":5007:5090   */\n      slt\n        /* \"#utility.yul\":5002:5003   */\n      0x00\n        /* \"#utility.yul\":4999:5000   */\n      dup5\n        /* \"#utility.yul\":4995:5004   */\n      slt\n        /* \"#utility.yul\":4991:4992   */\n      0x00\n        /* \"#utility.yul\":4988:4989   */\n      dup5\n        /* \"#utility.yul\":4984:4993   */\n      slt\n        /* \"#utility.yul\":4980:5005   */\n      and\n        /* \"#utility.yul\":4976:5091   */\n      and\n        /* \"#utility.yul\":4973:5114   */\n      iszero\n      tag_105\n      jumpi\n        /* \"#utility.yul\":5094:5112   */\n      tag_106\n      tag_35\n      jump\t// in\n    tag_106:\n        /* \"#utility.yul\":4973:5114   */\n    tag_105:\n        /* \"#utility.yul\":5142:5143   */\n      dup3\n        /* \"#utility.yul\":5139:5140   */\n      dup3\n        /* \"#utility.yul\":5135:5144   */\n      mul\n        /* \"#utility.yul\":5124:5144   */\n      swap1\n      pop\n        /* \"#utility.yul\":4159:5150   */\n      swap3\n      swap2\n      pop\n      pop\n      jump\t// out\n\n    auxdata: 0xa2646970667358221220ea7a41a0e3b10ea05f0a0c7e9e27a37aed59187da4492df9faf0e737df30c02664736f6c63430008090033\n}\n",
				"bytecode": {
					"linkReferences": {},
					"object": "608060405234801561001057600080fd5b5061054e806100206000396000f3fe608060405234801561001057600080fd5b50600436106100365760003560e01c80636e5b6b281461003b57806398d5fdca1461006b575b600080fd5b610055600480360381019061005091906101b9565b610089565b60405161006291906101f5565b60405180910390f35b6100736100c3565b60405161008091906101f5565b60405180910390f35b6000806100946100c3565b90506000670de0b6b3a764000084836100ad919061023f565b6100b791906102c8565b90508092505050919050565b600080735f4ec3df9cbd43714fe2740f5e3616155c5b8419905060008173ffffffffffffffffffffffffffffffffffffffff1663feaf968c6040518163ffffffff1660e01b815260040160a06040518083038186803b15801561012557600080fd5b505afa158015610139573d6000803e3d6000fd5b505050506040513d601f19601f8201168201806040525081019061015d9190610386565b505050915050670de0b6b3a7640000816101779190610401565b9250505090565b600080fd5b6000819050919050565b61019681610183565b81146101a157600080fd5b50565b6000813590506101b38161018d565b92915050565b6000602082840312156101cf576101ce61017e565b5b60006101dd848285016101a4565b91505092915050565b6101ef81610183565b82525050565b600060208201905061020a60008301846101e6565b92915050565b7f4e487b7100000000000000000000000000000000000000000000000000000000600052601160045260246000fd5b600061024a82610183565b915061025583610183565b9250817fffffffffffffffffffffffffffffffffffffffffffffffffffffffffffffffff048311821515161561028e5761028d610210565b5b828202905092915050565b7f4e487b7100000000000000000000000000000000000000000000000000000000600052601260045260246000fd5b60006102d382610183565b91506102de83610183565b9250826102ee576102ed610299565b5b828204905092915050565b600069ffffffffffffffffffff82169050919050565b610318816102f9565b811461032357600080fd5b50565b6000815190506103358161030f565b92915050565b6000819050919050565b61034e8161033b565b811461035957600080fd5b50565b60008151905061036b81610345565b92915050565b6000815190506103808161018d565b92915050565b600080600080600060a086880312156103a2576103a161017e565b5b60006103b088828901610326565b95505060206103c18882890161035c565b94505060406103d288828901610371565b93505060606103e388828901610371565b92505060806103f488828901610326565b9150509295509295909350565b600061040c8261033b565b91506104178361033b565b9250827f7fffffffffffffffffffffffffffffffffffffffffffffffffffffffffffffff048211600084136000841316161561045657610455610210565b5b817f8000000000000000000000000000000000000000000000000000000000000000058312600084126000841316161561049357610492610210565b5b827f800000000000000000000000000000000000000000000000000000000000000005821260008413600084121616156104d0576104cf610210565b5b827f7fffffffffffffffffffffffffffffffffffffffffffffffffffffffffffffff058212600084126000841216161561050d5761050c610210565b5b82820290509291505056fea2646970667358221220ea7a41a0e3b10ea05f0a0c7e9e27a37aed59187da4492df9faf0e737df30c02664736f6c63430008090033",
					"opcodes": "PUSH1 0x80 PUSH1 0x40 MSTORE CALLVALUE DUP1 ISZERO PUSH2 0x10 JUMPI PUSH1 0x0 DUP1 REVERT JUMPDEST POP PUSH2 0x54E DUP1 PUSH2 0x20 PUSH1 0x0 CODECOPY PUSH1 0x0 RETURN INVALID PUSH1 0x80 PUSH1 0x40 MSTORE CALLVALUE DUP1 ISZERO PUSH2 0x10 JUMPI PUSH1 0x0 DUP1 REVERT JUMPDEST POP PUSH1 0x4 CALLDATASIZE LT PUSH2 0x36 JUMPI PUSH1 0x0 CALLDATALOAD PUSH1 0xE0 SHR DUP1 PUSH4 0x6E5B6B28 EQ PUSH2 0x3B JUMPI DUP1 PUSH4 0x98D5FDCA EQ PUSH2 0x6B JUMPI JUMPDEST PUSH1 0x0 DUP1 REVERT JUMPDEST PUSH2 0x55 PUSH1 0x4 DUP1 CALLDATASIZE SUB DUP2 ADD SWAP1 PUSH2 0x50 SWAP2 SWAP1 PUSH2 0x1B9 JUMP JUMPDEST PUSH2 0x89 JUMP JUMPDEST PUSH1 0x40 MLOAD PUSH2 0x62 SWAP2 SWAP1 PUSH2 0x1F5 JUMP JUMPDEST PUSH1 0x40 MLOAD DUP1 SWAP2 SUB SWAP1 RETURN JUMPDEST PUSH2 0x73 PUSH2 0xC3 JUMP JUMPDEST PUSH1 0x40 MLOAD PUSH2 0x80 SWAP2 SWAP1 PUSH2 0x1F5 JUMP JUMPDEST PUSH1 0x40 MLOAD DUP1 SWAP2 SUB SWAP1 RETURN JUMPDEST PUSH1 0x0 DUP1 PUSH2 0x94 PUSH2 0xC3 JUMP JUMPDEST SWAP1 POP PUSH1 0x0 PUSH8 0xDE0B6B3A7640000 DUP5 DUP4 PUSH2 0xAD SWAP2 SWAP1 PUSH2 0x23F JUMP JUMPDEST PUSH2 0xB7 SWAP2 SWAP1 PUSH2 0x2C8 JUMP JUMPDEST SWAP1 POP DUP1 SWAP3 POP POP POP SWAP2 SWAP1 POP JUMP JUMPDEST PUSH1 0x0 DUP1 PUSH20 0x5F4EC3DF9CBD43714FE2740F5E3616155C5B8419 SWAP1 POP PUSH1 0x0 DUP2 PUSH20 0xFFFFFFFFFFFFFFFFFFFFFFFFFFFFFFFFFFFFFFFF AND PUSH4 0xFEAF968C PUSH1 0x40 MLOAD DUP2 PUSH4 0xFFFFFFFF AND PUSH1 0xE0 SHL DUP2 MSTORE PUSH1 0x4 ADD PUSH1 0xA0 PUSH1 0x40 MLOAD DUP1 DUP4 SUB DUP2 DUP7 DUP1 EXTCODESIZE ISZERO DUP1 ISZERO PUSH2 0x125 JUMPI PUSH1 0x0 DUP1 REVERT JUMPDEST POP GAS STATICCALL ISZERO DUP1 ISZERO PUSH2 0x139 JUMPI RETURNDATASIZE PUSH1 0x0 DUP1 RETURNDATACOPY RETURNDATASIZE PUSH1 0x0 REVERT JUMPDEST POP POP POP POP PUSH1 0x40 MLOAD RETURNDATASIZE PUSH1 0x1F NOT PUSH1 0x1F DUP3 ADD AND DUP3 ADD DUP1 PUSH1 0x40 MSTORE POP DUP2 ADD SWAP1 PUSH2 0x15D SWAP2 SWAP1 PUSH2 0x386 JUMP JUMPDEST POP POP POP SWAP2 POP POP PUSH8 0xDE0B6B3A7640000 DUP2 PUSH2 0x177 SWAP2 SWAP1 PUSH2 0x401 JUMP JUMPDEST SWAP3 POP POP POP SWAP1 JUMP JUMPDEST PUSH1 0x0 DUP1 REVERT JUMPDEST PUSH1 0x0 DUP2 SWAP1 POP SWAP2 SWAP1 POP JUMP JUMPDEST PUSH2 0x196 DUP2 PUSH2 0x183 JUMP JUMPDEST DUP2 EQ PUSH2 0x1A1 JUMPI PUSH1 0x0 DUP1 REVERT JUMPDEST POP JUMP JUMPDEST PUSH1 0x0 DUP2 CALLDATALOAD SWAP1 POP PUSH2 0x1B3 DUP2 PUSH2 0x18D JUMP JUMPDEST SWAP3 SWAP2 POP POP JUMP JUMPDEST PUSH1 0x0 PUSH1 0x20 DUP3 DUP5 SUB SLT ISZERO PUSH2 0x1CF JUMPI PUSH2 0x1CE PUSH2 0x17E JUMP JUMPDEST JUMPDEST PUSH1 0x0 PUSH2 0x1DD DUP5 DUP3 DUP6 ADD PUSH2 0x1A4 JUMP JUMPDEST SWAP2 POP POP SWAP3 SWAP2 POP POP JUMP JUMPDEST PUSH2 0x1EF DUP2 PUSH2 0x183 JUMP JUMPDEST DUP3 MSTORE POP POP JUMP JUMPDEST PUSH1 0x0 PUSH1 0x20 DUP3 ADD SWAP1 POP PUSH2 0x20A PUSH1 0x0 DUP4 ADD DUP5 PUSH2 0x1E6 JUMP JUMPDEST SWAP3 SWAP2 POP POP JUMP JUMPDEST PUSH32 0x4E487B7100000000000000000000000000000000000000000000000000000000 PUSH1 0x0 MSTORE PUSH1 0x11 PUSH1 0x4 MSTORE PUSH1 0x24 PUSH1 0x0 REVERT JUMPDEST PUSH1 0x0 PUSH2 0x24A DUP3 PUSH2 0x183 JUMP JUMPDEST SWAP2 POP PUSH2 0x255 DUP4 PUSH2 0x183 JUMP JUMPDEST SWAP3 POP DUP2 PUSH32 0xFFFFFFFFFFFFFFFFFFFFFFFFFFFFFFFFFFFFFFFFFFFFFFFFFFFFFFFFFFFFFFFF DIV DUP4 GT DUP3 ISZERO ISZERO AND ISZERO PUSH2 0x28E JUMPI PUSH2 0x28D PUSH2 0x210 JUMP JUMPDEST JUMPDEST DUP3 DUP3 MUL SWAP1 POP SWAP3 SWAP2 POP POP JUMP JUMPDEST PUSH32 0x4E487B7100000000000000000000000000000000000000000000000000000000 PUSH1 0x0 MSTORE PUSH1 0x12 PUSH1 0x4 MSTORE PUSH1 0x24 PUSH1 0x0 REVERT JUMPDEST PUSH1 0x0 PUSH2 0x2D3 DUP3 PUSH2 0x183 JUMP JUMPDEST SWAP2 POP PUSH2 0x2DE DUP4 PUSH2 0x183 JUMP JUMPDEST SWAP3 POP DUP3 PUSH2 0x2EE JUMPI PUSH2 0x2ED PUSH2 0x299 JUMP JUMPDEST JUMPDEST DUP3 DUP3 DIV SWAP1 POP SWAP3 SWAP2 POP POP JUMP JUMPDEST PUSH1 0x0 PUSH10 0xFFFFFFFFFFFFFFFFFFFF DUP3 AND SWAP1 POP SWAP2 SWAP1 POP JUMP JUMPDEST PUSH2 0x318 DUP2 PUSH2 0x2F9 JUMP JUMPDEST DUP2 EQ PUSH2 0x323 JUMPI PUSH1 0x0 DUP1 REVERT JUMPDEST POP JUMP JUMPDEST PUSH1 0x0 DUP2 MLOAD SWAP1 POP PUSH2 0x335 DUP2 PUSH2 0x30F JUMP JUMPDEST SWAP3 SWAP2 POP POP JUMP JUMPDEST PUSH1 0x0 DUP2 SWAP1 POP SWAP2 SWAP1 POP JUMP JUMPDEST PUSH2 0x34E DUP2 PUSH2 0x33B JUMP JUMPDEST DUP2 EQ PUSH2 0x359 JUMPI PUSH1 0x0 DUP1 REVERT JUMPDEST POP JUMP JUMPDEST PUSH1 0x0 DUP2 MLOAD SWAP1 POP PUSH2 0x36B DUP2 PUSH2 0x345 JUMP JUMPDEST SWAP3 SWAP2 POP POP JUMP JUMPDEST PUSH1 0x0 DUP2 MLOAD SWAP1 POP PUSH2 0x380 DUP2 PUSH2 0x18D JUMP JUMPDEST SWAP3 SWAP2 POP POP JUMP JUMPDEST PUSH1 0x0 DUP1 PUSH1 0x0 DUP1 PUSH1 0x0 PUSH1 0xA0 DUP7 DUP9 SUB SLT ISZERO PUSH2 0x3A2 JUMPI PUSH2 0x3A1 PUSH2 0x17E JUMP JUMPDEST JUMPDEST PUSH1 0x0 PUSH2 0x3B0 DUP9 DUP3 DUP10 ADD PUSH2 0x326 JUMP JUMPDEST SWAP6 POP POP PUSH1 0x20 PUSH2 0x3C1 DUP9 DUP3 DUP10 ADD PUSH2 0x35C JUMP JUMPDEST SWAP5 POP POP PUSH1 0x40 PUSH2 0x3D2 DUP9 DUP3 DUP10 ADD PUSH2 0x371 JUMP JUMPDEST SWAP4 POP POP PUSH1 0x60 PUSH2 0x3E3 DUP9 DUP3 DUP10 ADD PUSH2 0x371 JUMP JUMPDEST SWAP3 POP POP PUSH1 0x80 PUSH2 0x3F4 DUP9 DUP3 DUP10 ADD PUSH2 0x326 JUMP JUMPDEST SWAP2 POP POP SWAP3 SWAP6 POP SWAP3 SWAP6 SWAP1 SWAP4 POP JUMP JUMPDEST PUSH1 0x0 PUSH2 0x40C DUP3 PUSH2 0x33B JUMP JUMPDEST SWAP2 POP PUSH2 0x417 DUP4 PUSH2 0x33B JUMP JUMPDEST SWAP3 POP DUP3 PUSH32 0x7FFFFFFFFFFFFFFFFFFFFFFFFFFFFFFFFFFFFFFFFFFFFFFFFFFFFFFFFFFFFFFF DIV DUP3 GT PUSH1 0x0 DUP5 SGT PUSH1 0x0 DUP5 SGT AND AND ISZERO PUSH2 0x456 JUMPI PUSH2 0x455 PUSH2 0x210 JUMP JUMPDEST JUMPDEST DUP2 PUSH32 0x8000000000000000000000000000000000000000000000000000000000000000 SDIV DUP4 SLT PUSH1 0x0 DUP5 SLT PUSH1 0x0 DUP5 SGT AND AND ISZERO PUSH2 0x493 JUMPI PUSH2 0x492 PUSH2 0x210 JUMP JUMPDEST JUMPDEST DUP3 PUSH32 0x8000000000000000000000000000000000000000000000000000000000000000 SDIV DUP3 SLT PUSH1 0x0 DUP5 SGT PUSH1 0x0 DUP5 SLT AND AND ISZERO PUSH2 0x4D0 JUMPI PUSH2 0x4CF PUSH2 0x210 JUMP JUMPDEST JUMPDEST DUP3 PUSH32 0x7FFFFFFFFFFFFFFFFFFFFFFFFFFFFFFFFFFFFFFFFFFFFFFFFFFFFFFFFFFFFFFF SDIV DUP3 SLT PUSH1 0x0 DUP5 SLT PUSH1 0x0 DUP5 SLT AND AND ISZERO PUSH2 0x50D JUMPI PUSH2 0x50C PUSH2 0x210 JUMP JUMPDEST JUMPDEST DUP3 DUP3 MUL SWAP1 POP SWAP3 SWAP2 POP POP JUMP INVALID LOG2 PUSH5 0x6970667358 0x22 SLT KECCAK256 0xEA PUSH27 0x41A0E3B10EA05F0A0C7E9E27A37AED59187DA4492DF9FAF0E737DF ADDRESS 0xC0 0x26 PUSH5 0x736F6C6343 STOP ADDMOD MULMOD STOP CALLER "
				},
				"gasEstimates": {
					"creation": {
						"codeDepositCost": "271600",
						"executionCost": "312",
						"totalCost": "271912"
					},
					"external": {
						"getConversionRate(uint256)": "infinite",
						"getPrice()": "infinite"
					}
				},
				"methodIdentifiers": {
					"getConversionRate(uint256)": "6e5b6b28",
					"getPrice()": "98d5fdca"
				}
			},
			"storageLayout": {
				"storage": [],
				"types": null
			},
			"userdoc": {
				"kind": "user",
				"methods": {},
				"version": 1
			}
		}
	}
}